{
  "contractName": "Owner",
  "abi": [
    {
      "inputs": [
        {
          "internalType": "string",
          "name": "fn",
          "type": "string"
        },
        {
          "internalType": "string",
          "name": "ln",
          "type": "string"
        },
        {
          "internalType": "string",
          "name": "mn",
          "type": "string"
        },
        {
          "internalType": "string",
          "name": "father_name",
          "type": "string"
        },
        {
          "internalType": "uint256",
          "name": "ID",
          "type": "uint256"
        }
      ],
      "payable": false,
      "stateMutability": "nonpayable",
      "type": "constructor"
    },
    {
      "constant": false,
      "inputs": [
        {
          "internalType": "string",
          "name": "FN",
          "type": "string"
        }
      ],
      "name": "setFirstName",
      "outputs": [],
      "payable": false,
      "stateMutability": "nonpayable",
      "type": "function"
    },
    {
      "constant": true,
      "inputs": [],
      "name": "getFirstName",
      "outputs": [
        {
          "internalType": "string",
          "name": "",
          "type": "string"
        }
      ],
      "payable": false,
      "stateMutability": "view",
      "type": "function"
    },
    {
      "constant": true,
      "inputs": [],
      "name": "test",
      "outputs": [
        {
          "internalType": "string",
          "name": "",
          "type": "string"
        }
      ],
      "payable": false,
      "stateMutability": "pure",
      "type": "function"
    },
    {
      "constant": true,
      "inputs": [],
      "name": "getFullName",
      "outputs": [
        {
          "internalType": "string",
          "name": "",
          "type": "string"
        }
      ],
      "payable": false,
      "stateMutability": "view",
      "type": "function"
    },
    {
      "constant": false,
      "inputs": [
        {
          "internalType": "string",
          "name": "LN",
          "type": "string"
        }
      ],
      "name": "setLastName",
      "outputs": [],
      "payable": false,
      "stateMutability": "nonpayable",
      "type": "function"
    },
    {
      "constant": true,
      "inputs": [],
      "name": "getLastName",
      "outputs": [
        {
          "internalType": "string",
          "name": "",
          "type": "string"
        }
      ],
      "payable": false,
      "stateMutability": "view",
      "type": "function"
    },
    {
      "constant": false,
      "inputs": [
        {
          "internalType": "string",
          "name": "FatherN",
          "type": "string"
        }
      ],
      "name": "setFatherName",
      "outputs": [],
      "payable": false,
      "stateMutability": "nonpayable",
      "type": "function"
    },
    {
      "constant": true,
      "inputs": [],
      "name": "getFatherName",
      "outputs": [
        {
          "internalType": "string",
          "name": "",
          "type": "string"
        }
      ],
      "payable": false,
      "stateMutability": "view",
      "type": "function"
    },
    {
      "constant": false,
      "inputs": [
        {
          "internalType": "string",
          "name": "MN",
          "type": "string"
        }
      ],
      "name": "setMotherName",
      "outputs": [],
      "payable": false,
      "stateMutability": "nonpayable",
      "type": "function"
    },
    {
      "constant": true,
      "inputs": [],
      "name": "getMotherName",
      "outputs": [
        {
          "internalType": "string",
          "name": "",
          "type": "string"
        }
      ],
      "payable": false,
      "stateMutability": "view",
      "type": "function"
    },
    {
      "constant": false,
      "inputs": [
        {
          "internalType": "uint256",
          "name": "NatNum",
          "type": "uint256"
        }
      ],
      "name": "setNationalNumber",
      "outputs": [],
      "payable": false,
      "stateMutability": "nonpayable",
      "type": "function"
    },
    {
      "constant": true,
      "inputs": [],
      "name": "getNationalNumber",
      "outputs": [
        {
          "internalType": "uint256",
          "name": "",
          "type": "uint256"
        }
      ],
      "payable": false,
      "stateMutability": "view",
      "type": "function"
    },
    {
      "constant": true,
      "inputs": [],
      "name": "getInfo",
      "outputs": [
        {
          "internalType": "string",
          "name": "",
          "type": "string"
        },
        {
          "internalType": "string",
          "name": "",
          "type": "string"
        },
        {
          "internalType": "string",
          "name": "",
          "type": "string"
        },
        {
          "internalType": "string",
          "name": "",
          "type": "string"
        },
        {
          "internalType": "uint256",
          "name": "",
          "type": "uint256"
        }
      ],
      "payable": false,
      "stateMutability": "view",
      "type": "function"
    },
    {
      "constant": false,
      "inputs": [
        {
          "internalType": "string",
          "name": "first_name",
          "type": "string"
        },
        {
          "internalType": "string",
          "name": "last_name",
          "type": "string"
        },
        {
          "internalType": "string",
          "name": "father_name",
          "type": "string"
        },
        {
          "internalType": "string",
          "name": "mother_name",
          "type": "string"
        },
        {
          "internalType": "uint256",
          "name": "national_number",
          "type": "uint256"
        }
      ],
      "name": "setInfo",
      "outputs": [],
      "payable": false,
      "stateMutability": "nonpayable",
      "type": "function"
    }
  ],
  "bytecode": "0x60806040526040518060400160405280600781526020017f4d61686d6f7564000000000000000000000000000000000000000000000000008152506000908051906020019062000051929190620004f0565b503480156200005f57600080fd5b50604051620018fa380380620018fa833981810160405260a08110156200008557600080fd5b8101908080516040519392919084640100000000821115620000a657600080fd5b83820191506020820185811115620000bd57600080fd5b8251866001820283011164010000000082111715620000db57600080fd5b8083526020830192505050908051906020019080838360005b8381101562000111578082015181840152602081019050620000f4565b50505050905090810190601f1680156200013f5780820380516001836020036101000a031916815260200191505b50604052602001805160405193929190846401000000008211156200016357600080fd5b838201915060208201858111156200017a57600080fd5b82518660018202830111640100000000821117156200019857600080fd5b8083526020830192505050908051906020019080838360005b83811015620001ce578082015181840152602081019050620001b1565b50505050905090810190601f168015620001fc5780820380516001836020036101000a031916815260200191505b50604052602001805160405193929190846401000000008211156200022057600080fd5b838201915060208201858111156200023757600080fd5b82518660018202830111640100000000821117156200025557600080fd5b8083526020830192505050908051906020019080838360005b838110156200028b5780820151818401526020810190506200026e565b50505050905090810190601f168015620002b95780820380516001836020036101000a031916815260200191505b5060405260200180516040519392919084640100000000821115620002dd57600080fd5b83820191506020820185811115620002f457600080fd5b82518660018202830111640100000000821117156200031257600080fd5b8083526020830192505050908051906020019080838360005b83811015620003485780820151818401526020810190506200032b565b50505050905090810190601f168015620003765780820380516001836020036101000a031916815260200191505b50604052602001805190602001909291905050508460039080519060200190620003a2929190620004f0565b508360019080519060200190620003bb929190620004f0565b508260029080519060200190620003d4929190620004f0565b508160039080519060200190620003ed929190620004f0565b50806005819055506000600160405160200180838054600181600116156101000203166002900480156200045b5780601f10620004385761010080835404028352918201916200045b565b820191906000526020600020905b81548152906001019060200180831162000446575b505082805460018160011615610100020316600290048015620004b85780601f1062000495576101008083540402835291820191620004b8565b820191906000526020600020905b815481529060010190602001808311620004a3575b50509250505060405160208183030381529060405260049080519060200190620004e4929190620004f0565b5050505050506200059f565b828054600181600116156101000203166002900490600052602060002090601f016020900481019282601f106200053357805160ff191683800117855562000564565b8280016001018555821562000564579182015b828111156200056357825182559160200191906001019062000546565b5b50905062000573919062000577565b5090565b6200059c91905b80821115620005985760008160009055506001016200057e565b5090565b90565b61134b80620005af6000396000f3fe608060405234801561001057600080fd5b50600436106100ea5760003560e01c80638311456a1161008c578063932997f111610066578063932997f1146109a2578063b683388514610a25578063f8a8fd6d14610a53578063f8cf8e0314610ad6576100ea565b80638311456a146105da5780638c16018614610864578063932754f9146108e7576100ea565b80635a9b0b89116100c85780635a9b0b89146102135780636392f76b146103e15780636b1092821461049c5780636ccd3c8c1461051f576100ea565b80631edbe53a146100ef578063384779881461010d5780634fa4329d14610190575b600080fd5b6100f7610b91565b6040518082815260200191505060405180910390f35b610115610b9b565b6040518080602001828103825283818151815260200191508051906020019080838360005b8381101561015557808201518184015260208101905061013a565b50505050905090810190601f1680156101825780820380516001836020036101000a031916815260200191505b509250505060405180910390f35b610198610c3d565b6040518080602001828103825283818151815260200191508051906020019080838360005b838110156101d85780820151818401526020810190506101bd565b50505050905090810190601f1680156102055780820380516001836020036101000a031916815260200191505b509250505060405180910390f35b61021b610cdf565b604051808060200180602001806020018060200186815260200185810385528a818151815260200191508051906020019080838360005b8381101561026d578082015181840152602081019050610252565b50505050905090810190601f16801561029a5780820380516001836020036101000a031916815260200191505b50858103845289818151815260200191508051906020019080838360005b838110156102d35780820151818401526020810190506102b8565b50505050905090810190601f1680156103005780820380516001836020036101000a031916815260200191505b50858103835288818151815260200191508051906020019080838360005b8381101561033957808201518184015260208101905061031e565b50505050905090810190601f1680156103665780820380516001836020036101000a031916815260200191505b50858103825287818151815260200191508051906020019080838360005b8381101561039f578082015181840152602081019050610384565b50505050905090810190601f1680156103cc5780820380516001836020036101000a031916815260200191505b50995050505050505050505060405180910390f35b61049a600480360360208110156103f757600080fd5b810190808035906020019064010000000081111561041457600080fd5b82018360208201111561042657600080fd5b8035906020019184600183028401116401000000008311171561044857600080fd5b91908080601f016020809104026020016040519081016040528093929190818152602001838380828437600081840152601f19601f820116905080830192505050505050509192919290505050610f72565b005b6104a4610f8c565b6040518080602001828103825283818151815260200191508051906020019080838360005b838110156104e45780820151818401526020810190506104c9565b50505050905090810190601f1680156105115780820380516001836020036101000a031916815260200191505b509250505060405180910390f35b6105d86004803603602081101561053557600080fd5b810190808035906020019064010000000081111561055257600080fd5b82018360208201111561056457600080fd5b8035906020019184600183028401116401000000008311171561058657600080fd5b91908080601f016020809104026020016040519081016040528093929190818152602001838380828437600081840152601f19601f82011690508083019250505050505050919291929050505061102e565b005b610862600480360360a08110156105f057600080fd5b810190808035906020019064010000000081111561060d57600080fd5b82018360208201111561061f57600080fd5b8035906020019184600183028401116401000000008311171561064157600080fd5b91908080601f016020809104026020016040519081016040528093929190818152602001838380828437600081840152601f19601f820116905080830192505050505050509192919290803590602001906401000000008111156106a457600080fd5b8201836020820111156106b657600080fd5b803590602001918460018302840111640100000000831117156106d857600080fd5b91908080601f016020809104026020016040519081016040528093929190818152602001838380828437600081840152601f19601f8201169050808301925050505050505091929192908035906020019064010000000081111561073b57600080fd5b82018360208201111561074d57600080fd5b8035906020019184600183028401116401000000008311171561076f57600080fd5b91908080601f016020809104026020016040519081016040528093929190818152602001838380828437600081840152601f19601f820116905080830192505050505050509192919290803590602001906401000000008111156107d257600080fd5b8201836020820111156107e457600080fd5b8035906020019184600183028401116401000000008311171561080657600080fd5b91908080601f016020809104026020016040519081016040528093929190818152602001838380828437600081840152601f19601f82011690508083019250505050505050919291929080359060200190929190505050611048565b005b61086c6110b2565b6040518080602001828103825283818151815260200191508051906020019080838360005b838110156108ac578082015181840152602081019050610891565b50505050905090810190601f1680156108d95780820380516001836020036101000a031916815260200191505b509250505060405180910390f35b6109a0600480360360208110156108fd57600080fd5b810190808035906020019064010000000081111561091a57600080fd5b82018360208201111561092c57600080fd5b8035906020019184600183028401116401000000008311171561094e57600080fd5b91908080601f016020809104026020016040519081016040528093929190818152602001838380828437600081840152601f19601f820116905080830192505050505050509192919290505050611154565b005b6109aa61116e565b6040518080602001828103825283818151815260200191508051906020019080838360005b838110156109ea5780820151818401526020810190506109cf565b50505050905090810190601f168015610a175780820380516001836020036101000a031916815260200191505b509250505060405180910390f35b610a5160048036036020811015610a3b57600080fd5b8101908080359060200190929190505050611210565b005b610a5b61121a565b6040518080602001828103825283818151815260200191508051906020019080838360005b83811015610a9b578082015181840152602081019050610a80565b50505050905090810190601f168015610ac85780820380516001836020036101000a031916815260200191505b509250505060405180910390f35b610b8f60048036036020811015610aec57600080fd5b8101908080359060200190640100000000811115610b0957600080fd5b820183602082011115610b1b57600080fd5b80359060200191846001830284011164010000000083111715610b3d57600080fd5b91908080601f016020809104026020016040519081016040528093929190818152602001838380828437600081840152601f19601f820116905080830192505050505050509192919290505050611257565b005b6000600554905090565b606060028054600181600116156101000203166002900480601f016020809104026020016040519081016040528092919081815260200182805460018160011615610100020316600290048015610c335780601f10610c0857610100808354040283529160200191610c33565b820191906000526020600020905b815481529060010190602001808311610c1657829003601f168201915b5050505050905090565b606060038054600181600116156101000203166002900480601f016020809104026020016040519081016040528092919081815260200182805460018160011615610100020316600290048015610cd55780601f10610caa57610100808354040283529160200191610cd5565b820191906000526020600020905b815481529060010190602001808311610cb857829003601f168201915b5050505050905090565b606080606080600080600160036002600554848054600181600116156101000203166002900480601f016020809104026020016040519081016040528092919081815260200182805460018160011615610100020316600290048015610d865780601f10610d5b57610100808354040283529160200191610d86565b820191906000526020600020905b815481529060010190602001808311610d6957829003601f168201915b50505050509450838054600181600116156101000203166002900480601f016020809104026020016040519081016040528092919081815260200182805460018160011615610100020316600290048015610e225780601f10610df757610100808354040283529160200191610e22565b820191906000526020600020905b815481529060010190602001808311610e0557829003601f168201915b50505050509350828054600181600116156101000203166002900480601f016020809104026020016040519081016040528092919081815260200182805460018160011615610100020316600290048015610ebe5780601f10610e9357610100808354040283529160200191610ebe565b820191906000526020600020905b815481529060010190602001808311610ea157829003601f168201915b50505050509250818054600181600116156101000203166002900480601f016020809104026020016040519081016040528092919081815260200182805460018160011615610100020316600290048015610f5a5780601f10610f2f57610100808354040283529160200191610f5a565b820191906000526020600020905b815481529060010190602001808311610f3d57829003601f168201915b50505050509150945094509450945094509091929394565b8060009080519060200190610f88929190611271565b5050565b606060018054600181600116156101000203166002900480601f0160208091040260200160405190810160405280929190818152602001828054600181600116156101000203166002900480156110245780601f10610ff957610100808354040283529160200191611024565b820191906000526020600020905b81548152906001019060200180831161100757829003601f168201915b5050505050905090565b8060039080519060200190611044929190611271565b5050565b846000908051906020019061105e929190611271565b508360019080519060200190611075929190611271565b50826003908051906020019061108c929190611271565b5081600290805190602001906110a3929190611271565b50806005819055505050505050565b606060048054600181600116156101000203166002900480601f01602080910402602001604051908101604052809291908181526020018280546001816001161561010002031660029004801561114a5780601f1061111f5761010080835404028352916020019161114a565b820191906000526020600020905b81548152906001019060200180831161112d57829003601f168201915b5050505050905090565b806001908051906020019061116a929190611271565b5050565b606060008054600181600116156101000203166002900480601f0160208091040260200160405190810160405280929190818152602001828054600181600116156101000203166002900480156112065780601f106111db57610100808354040283529160200191611206565b820191906000526020600020905b8154815290600101906020018083116111e957829003601f168201915b5050505050905090565b8060058190555050565b60606040518060400160405280601281526020017f4d79206e616d65206973204d61686d6f75640000000000000000000000000000815250905090565b806002908051906020019061126d929190611271565b5050565b828054600181600116156101000203166002900490600052602060002090601f016020900481019282601f106112b257805160ff19168380011785556112e0565b828001600101855582156112e0579182015b828111156112df5782518255916020019190600101906112c4565b5b5090506112ed91906112f1565b5090565b61131391905b8082111561130f5760008160009055506001016112f7565b5090565b9056fea265627a7a7231582076531c14493ad71113893751ab0e1934fa9587c91ff598695aa0c5f13b1a122864736f6c63430005100032",
  "source": "//SPDX-License-Identifier: UNLICENSED\r\npragma solidity >=0.4.21 <0.7.0;\r\n\r\ncontract Owner{\r\n         string firstname=\"Mahmoud\";\r\n        string lastname;\r\n        string mothername;\r\n        string fathername;\r\n        string fullName;\r\n        uint256 nationalNumber;\r\n\r\n        constructor(string memory fn, string memory ln, string memory mn, string memory father_name,uint256 ID) public{\r\n            fathername = fn;\r\n            lastname = ln;\r\n            mothername = mn;\r\n            fathername = father_name;\r\n            nationalNumber = ID;\r\n            fullName = string (abi.encodePacked(firstname,lastname));\r\n        }\r\n\r\n        function setFirstName(string memory FN) public{\r\n         firstname = FN;\r\n        }\r\n        function getFirstName() public view returns(string memory){\r\n            return firstname;\r\n        }\r\n\r\n        function test() public pure returns(string memory){\r\n            return \"My name is Mahmoud\";\r\n        }\r\n\r\n        function getFullName() public view returns(string memory){\r\n            return fullName;\r\n        }\r\n\r\n         function setLastName(string memory LN) public{\r\n         lastname = LN;\r\n        }\r\n        function getLastName() public view returns(string memory){\r\n            return lastname;\r\n        }\r\n\r\n         function setFatherName(string memory FatherN) public{\r\n         fathername = FatherN;\r\n        }\r\n        function getFatherName() public view returns(string memory){\r\n            return fathername;\r\n        }\r\n\r\n         function setMotherName(string memory MN) public{\r\n         mothername = MN;\r\n        }\r\n        function getMotherName() public view returns(string memory){\r\n            return mothername;\r\n        }\r\n\r\n         function setNationalNumber(uint256 NatNum) public{\r\n         nationalNumber = NatNum;\r\n        }\r\n        function getNationalNumber() public view returns(uint256){\r\n            return nationalNumber;\r\n        }\r\n\r\n        function getInfo() public view returns(string memory,string memory,string memory,string memory,uint){\r\n            return (firstname,lastname,fathername,mothername,nationalNumber);\r\n        }\r\n\r\n        function setInfo(\r\n        string memory first_name,\r\n        string memory last_name,\r\n        string memory father_name,\r\n        string memory mother_name,\r\n        uint256 national_number\r\n         ) public {\r\n            firstname = first_name;\r\n            lastname = last_name;\r\n            fathername = father_name;\r\n            mothername = mother_name;\r\n            nationalNumber = national_number;\r\n\r\n        }\r\n\r\n}",
  "sourcePath": "C:\\Users\\m-y-6\\Desktop\\solidity\\myproject\\contracts\\Owner.sol",
  "compiler": {
    "name": "solc",
    "version": "0.5.16+commit.9c3226ce.Emscripten.clang"
  },
  "schemaVersion": "3.2.0",
  "updatedAt": "2020-07-06T15:12:13.014Z",
  "networkType": "ethereum",
  "devdoc": {
    "methods": {}
  },
  "userdoc": {
    "methods": {}
  }
}