{
  "contractName": "Property",
  "abi": [
    {
      "inputs": [
        {
          "internalType": "uint256",
          "name": "propertyNum",
          "type": "uint256"
        }
      ],
      "payable": false,
      "stateMutability": "nonpayable",
      "type": "constructor"
    },
    {
      "constant": false,
      "inputs": [
        {
          "internalType": "contract Person",
          "name": "newOwner",
          "type": "address"
        }
      ],
      "name": "changeOwner",
      "outputs": [],
      "payable": false,
      "stateMutability": "nonpayable",
      "type": "function"
    },
    {
      "constant": true,
      "inputs": [],
      "name": "getStatus",
      "outputs": [
        {
          "internalType": "bool",
          "name": "",
          "type": "bool"
        }
      ],
      "payable": false,
      "stateMutability": "view",
      "type": "function"
    },
    {
      "constant": true,
      "inputs": [],
      "name": "getOwnerFullName",
      "outputs": [
        {
          "internalType": "string",
          "name": "",
          "type": "string"
        }
      ],
      "payable": false,
      "stateMutability": "view",
      "type": "function"
    },
    {
      "constant": true,
      "inputs": [],
      "name": "getOwnerID",
      "outputs": [
        {
          "internalType": "uint256",
          "name": "",
          "type": "uint256"
        }
      ],
      "payable": false,
      "stateMutability": "view",
      "type": "function"
    },
    {
      "constant": true,
      "inputs": [],
      "name": "getPropertyAddress",
      "outputs": [
        {
          "internalType": "address",
          "name": "",
          "type": "address"
        }
      ],
      "payable": false,
      "stateMutability": "view",
      "type": "function"
    },
    {
      "constant": true,
      "inputs": [],
      "name": "getPropertyNumber",
      "outputs": [
        {
          "internalType": "uint256",
          "name": "",
          "type": "uint256"
        }
      ],
      "payable": false,
      "stateMutability": "view",
      "type": "function"
    }
  ],
  "bytecode": "0x60806040526000600260006101000a81548160ff02191690831515021790555034801561002b57600080fd5b506040516128b63803806128b68339818101604052602081101561004e57600080fd5b8101908080519060200190929190505050601760405161006d906101df565b8080602001806020018060200180602001868152602001858103855260048152602001807f7361647300000000000000000000000000000000000000000000000000000000815250602001858103845260038152602001807f6664670000000000000000000000000000000000000000000000000000000000815250602001858103835260048152602001807f7364666700000000000000000000000000000000000000000000000000000000815250602001858103825260038152602001807f686667000000000000000000000000000000000000000000000000000000000081525060200195505050505050604051809103906000f080158015610177573d6000803e3d6000fd5b506000806101000a81548173ffffffffffffffffffffffffffffffffffffffff021916908373ffffffffffffffffffffffffffffffffffffffff160217905550806001819055506001600260006101000a81548160ff021916908315150217905550506101ec565b6118ac8061100a83390190565b610e0f806101fb6000396000f3fe608060405234801561001057600080fd5b50600436106100625760003560e01c8063144837a0146100675780634dfef0d8146100855780634e69d56014610108578063a6f9dae11461012a578063b0a742b01461016e578063f2c4769a1461018c575b600080fd5b61006f6101d6565b6040518082815260200191505060405180910390f35b61008d6101e0565b6040518080602001828103825283818151815260200191508051906020019080838360005b838110156100cd5780820151818401526020810190506100b2565b50505050905090810190601f1680156100fa5780820380516001836020036101000a031916815260200191505b509250505060405180910390f35b610110610347565b604051808215151515815260200191505060405180910390f35b61016c6004803603602081101561014057600080fd5b81019080803573ffffffffffffffffffffffffffffffffffffffff16906020019092919050505061035e565b005b610176610d29565b6040518082815260200191505060405180910390f35b610194610dd2565b604051808273ffffffffffffffffffffffffffffffffffffffff1673ffffffffffffffffffffffffffffffffffffffff16815260200191505060405180910390f35b6000600154905090565b60606000809054906101000a900473ffffffffffffffffffffffffffffffffffffffff1673ffffffffffffffffffffffffffffffffffffffff16638c1601866040518163ffffffff1660e01b815260040160006040518083038186803b15801561024957600080fd5b505afa15801561025d573d6000803e3d6000fd5b505050506040513d6000823e3d601f19601f82011682018060405250602081101561028757600080fd5b81019080805160405193929190846401000000008211156102a757600080fd5b838201915060208201858111156102bd57600080fd5b82518660018202830111640100000000821117156102da57600080fd5b8083526020830192505050908051906020019080838360005b8381101561030e5780820151818401526020810190506102f3565b50505050905090810190601f16801561033b5780820380516001836020036101000a031916815260200191505b50604052505050905090565b6000600260009054906101000a900460ff16905090565b6000809054906101000a900473ffffffffffffffffffffffffffffffffffffffff1673ffffffffffffffffffffffffffffffffffffffff16636392f76b8273ffffffffffffffffffffffffffffffffffffffff1663932997f16040518163ffffffff1660e01b815260040160006040518083038186803b1580156103e157600080fd5b505afa1580156103f5573d6000803e3d6000fd5b505050506040513d6000823e3d601f19601f82011682018060405250602081101561041f57600080fd5b810190808051604051939291908464010000000082111561043f57600080fd5b8382019150602082018581111561045557600080fd5b825186600182028301116401000000008211171561047257600080fd5b8083526020830192505050908051906020019080838360005b838110156104a657808201518184015260208101905061048b565b50505050905090810190601f1680156104d35780820380516001836020036101000a031916815260200191505b506040525050506040518263ffffffff1660e01b81526004018080602001828103825283818151815260200191508051906020019080838360005b8381101561052957808201518184015260208101905061050e565b50505050905090810190601f1680156105565780820380516001836020036101000a031916815260200191505b5092505050600060405180830381600087803b15801561057557600080fd5b505af1158015610589573d6000803e3d6000fd5b505050506000809054906101000a900473ffffffffffffffffffffffffffffffffffffffff1673ffffffffffffffffffffffffffffffffffffffff1663932754f98273ffffffffffffffffffffffffffffffffffffffff16636b1092826040518163ffffffff1660e01b815260040160006040518083038186803b15801561061057600080fd5b505afa158015610624573d6000803e3d6000fd5b505050506040513d6000823e3d601f19601f82011682018060405250602081101561064e57600080fd5b810190808051604051939291908464010000000082111561066e57600080fd5b8382019150602082018581111561068457600080fd5b82518660018202830111640100000000821117156106a157600080fd5b8083526020830192505050908051906020019080838360005b838110156106d55780820151818401526020810190506106ba565b50505050905090810190601f1680156107025780820380516001836020036101000a031916815260200191505b506040525050506040518263ffffffff1660e01b81526004018080602001828103825283818151815260200191508051906020019080838360005b8381101561075857808201518184015260208101905061073d565b50505050905090810190601f1680156107855780820380516001836020036101000a031916815260200191505b5092505050600060405180830381600087803b1580156107a457600080fd5b505af11580156107b8573d6000803e3d6000fd5b505050506000809054906101000a900473ffffffffffffffffffffffffffffffffffffffff1673ffffffffffffffffffffffffffffffffffffffff16636ccd3c8c8273ffffffffffffffffffffffffffffffffffffffff16634fa4329d6040518163ffffffff1660e01b815260040160006040518083038186803b15801561083f57600080fd5b505afa158015610853573d6000803e3d6000fd5b505050506040513d6000823e3d601f19601f82011682018060405250602081101561087d57600080fd5b810190808051604051939291908464010000000082111561089d57600080fd5b838201915060208201858111156108b357600080fd5b82518660018202830111640100000000821117156108d057600080fd5b8083526020830192505050908051906020019080838360005b838110156109045780820151818401526020810190506108e9565b50505050905090810190601f1680156109315780820380516001836020036101000a031916815260200191505b506040525050506040518263ffffffff1660e01b81526004018080602001828103825283818151815260200191508051906020019080838360005b8381101561098757808201518184015260208101905061096c565b50505050905090810190601f1680156109b45780820380516001836020036101000a031916815260200191505b5092505050600060405180830381600087803b1580156109d357600080fd5b505af11580156109e7573d6000803e3d6000fd5b505050506000809054906101000a900473ffffffffffffffffffffffffffffffffffffffff1673ffffffffffffffffffffffffffffffffffffffff1663f8cf8e038273ffffffffffffffffffffffffffffffffffffffff1663384779886040518163ffffffff1660e01b815260040160006040518083038186803b158015610a6e57600080fd5b505afa158015610a82573d6000803e3d6000fd5b505050506040513d6000823e3d601f19601f820116820180604052506020811015610aac57600080fd5b8101908080516040519392919084640100000000821115610acc57600080fd5b83820191506020820185811115610ae257600080fd5b8251866001820283011164010000000082111715610aff57600080fd5b8083526020830192505050908051906020019080838360005b83811015610b33578082015181840152602081019050610b18565b50505050905090810190601f168015610b605780820380516001836020036101000a031916815260200191505b506040525050506040518263ffffffff1660e01b81526004018080602001828103825283818151815260200191508051906020019080838360005b83811015610bb6578082015181840152602081019050610b9b565b50505050905090810190601f168015610be35780820380516001836020036101000a031916815260200191505b5092505050600060405180830381600087803b158015610c0257600080fd5b505af1158015610c16573d6000803e3d6000fd5b505050506000809054906101000a900473ffffffffffffffffffffffffffffffffffffffff1673ffffffffffffffffffffffffffffffffffffffff1663b68338858273ffffffffffffffffffffffffffffffffffffffff16631edbe53a6040518163ffffffff1660e01b815260040160206040518083038186803b158015610c9d57600080fd5b505afa158015610cb1573d6000803e3d6000fd5b505050506040513d6020811015610cc757600080fd5b81019080805190602001909291905050506040518263ffffffff1660e01b815260040180828152602001915050600060405180830381600087803b158015610d0e57600080fd5b505af1158015610d22573d6000803e3d6000fd5b5050505050565b60008060009054906101000a900473ffffffffffffffffffffffffffffffffffffffff1673ffffffffffffffffffffffffffffffffffffffff16631edbe53a6040518163ffffffff1660e01b815260040160206040518083038186803b158015610d9257600080fd5b505afa158015610da6573d6000803e3d6000fd5b505050506040513d6020811015610dbc57600080fd5b8101908080519060200190929190505050905090565b60003090509056fea265627a7a7231582061a4eeea61f9582b3731296291efb553bb70aea7cfe7ab4aac6d4d7604dfbc4264736f6c6343000510003260806040523480156200001157600080fd5b50604051620018ac380380620018ac833981810160405260a08110156200003757600080fd5b81019080805160405193929190846401000000008211156200005857600080fd5b838201915060208201858111156200006f57600080fd5b82518660018202830111640100000000821117156200008d57600080fd5b8083526020830192505050908051906020019080838360005b83811015620000c3578082015181840152602081019050620000a6565b50505050905090810190601f168015620000f15780820380516001836020036101000a031916815260200191505b50604052602001805160405193929190846401000000008211156200011557600080fd5b838201915060208201858111156200012c57600080fd5b82518660018202830111640100000000821117156200014a57600080fd5b8083526020830192505050908051906020019080838360005b838110156200018057808201518184015260208101905062000163565b50505050905090810190601f168015620001ae5780820380516001836020036101000a031916815260200191505b5060405260200180516040519392919084640100000000821115620001d257600080fd5b83820191506020820185811115620001e957600080fd5b82518660018202830111640100000000821117156200020757600080fd5b8083526020830192505050908051906020019080838360005b838110156200023d57808201518184015260208101905062000220565b50505050905090810190601f1680156200026b5780820380516001836020036101000a031916815260200191505b50604052602001805160405193929190846401000000008211156200028f57600080fd5b83820191506020820185811115620002a657600080fd5b8251866001820283011164010000000082111715620002c457600080fd5b8083526020830192505050908051906020019080838360005b83811015620002fa578082015181840152602081019050620002dd565b50505050905090810190601f168015620003285780820380516001836020036101000a031916815260200191505b5060405260200180519060200190929190505050846003908051906020019062000354929190620004a2565b5083600190805190602001906200036d929190620004a2565b50826002908051906020019062000386929190620004a2565b5081600390805190602001906200039f929190620004a2565b50806005819055506000600160405160200180838054600181600116156101000203166002900480156200040d5780601f10620003ea5761010080835404028352918201916200040d565b820191906000526020600020905b815481529060010190602001808311620003f8575b5050828054600181600116156101000203166002900480156200046a5780601f10620004475761010080835404028352918201916200046a565b820191906000526020600020905b81548152906001019060200180831162000455575b5050925050506040516020818303038152906040526004908051906020019062000496929190620004a2565b50505050505062000551565b828054600181600116156101000203166002900490600052602060002090601f016020900481019282601f10620004e557805160ff191683800117855562000516565b8280016001018555821562000516579182015b8281111562000515578251825591602001919060010190620004f8565b5b50905062000525919062000529565b5090565b6200054e91905b808211156200054a57600081600090555060010162000530565b5090565b90565b61134b80620005616000396000f3fe608060405234801561001057600080fd5b50600436106100ea5760003560e01c80638311456a1161008c578063932997f111610066578063932997f1146109a2578063b683388514610a25578063f8a8fd6d14610a53578063f8cf8e0314610ad6576100ea565b80638311456a146105da5780638c16018614610864578063932754f9146108e7576100ea565b80635a9b0b89116100c85780635a9b0b89146102135780636392f76b146103e15780636b1092821461049c5780636ccd3c8c1461051f576100ea565b80631edbe53a146100ef578063384779881461010d5780634fa4329d14610190575b600080fd5b6100f7610b91565b6040518082815260200191505060405180910390f35b610115610b9b565b6040518080602001828103825283818151815260200191508051906020019080838360005b8381101561015557808201518184015260208101905061013a565b50505050905090810190601f1680156101825780820380516001836020036101000a031916815260200191505b509250505060405180910390f35b610198610c3d565b6040518080602001828103825283818151815260200191508051906020019080838360005b838110156101d85780820151818401526020810190506101bd565b50505050905090810190601f1680156102055780820380516001836020036101000a031916815260200191505b509250505060405180910390f35b61021b610cdf565b604051808060200180602001806020018060200186815260200185810385528a818151815260200191508051906020019080838360005b8381101561026d578082015181840152602081019050610252565b50505050905090810190601f16801561029a5780820380516001836020036101000a031916815260200191505b50858103845289818151815260200191508051906020019080838360005b838110156102d35780820151818401526020810190506102b8565b50505050905090810190601f1680156103005780820380516001836020036101000a031916815260200191505b50858103835288818151815260200191508051906020019080838360005b8381101561033957808201518184015260208101905061031e565b50505050905090810190601f1680156103665780820380516001836020036101000a031916815260200191505b50858103825287818151815260200191508051906020019080838360005b8381101561039f578082015181840152602081019050610384565b50505050905090810190601f1680156103cc5780820380516001836020036101000a031916815260200191505b50995050505050505050505060405180910390f35b61049a600480360360208110156103f757600080fd5b810190808035906020019064010000000081111561041457600080fd5b82018360208201111561042657600080fd5b8035906020019184600183028401116401000000008311171561044857600080fd5b91908080601f016020809104026020016040519081016040528093929190818152602001838380828437600081840152601f19601f820116905080830192505050505050509192919290505050610f72565b005b6104a4610f8c565b6040518080602001828103825283818151815260200191508051906020019080838360005b838110156104e45780820151818401526020810190506104c9565b50505050905090810190601f1680156105115780820380516001836020036101000a031916815260200191505b509250505060405180910390f35b6105d86004803603602081101561053557600080fd5b810190808035906020019064010000000081111561055257600080fd5b82018360208201111561056457600080fd5b8035906020019184600183028401116401000000008311171561058657600080fd5b91908080601f016020809104026020016040519081016040528093929190818152602001838380828437600081840152601f19601f82011690508083019250505050505050919291929050505061102e565b005b610862600480360360a08110156105f057600080fd5b810190808035906020019064010000000081111561060d57600080fd5b82018360208201111561061f57600080fd5b8035906020019184600183028401116401000000008311171561064157600080fd5b91908080601f016020809104026020016040519081016040528093929190818152602001838380828437600081840152601f19601f820116905080830192505050505050509192919290803590602001906401000000008111156106a457600080fd5b8201836020820111156106b657600080fd5b803590602001918460018302840111640100000000831117156106d857600080fd5b91908080601f016020809104026020016040519081016040528093929190818152602001838380828437600081840152601f19601f8201169050808301925050505050505091929192908035906020019064010000000081111561073b57600080fd5b82018360208201111561074d57600080fd5b8035906020019184600183028401116401000000008311171561076f57600080fd5b91908080601f016020809104026020016040519081016040528093929190818152602001838380828437600081840152601f19601f820116905080830192505050505050509192919290803590602001906401000000008111156107d257600080fd5b8201836020820111156107e457600080fd5b8035906020019184600183028401116401000000008311171561080657600080fd5b91908080601f016020809104026020016040519081016040528093929190818152602001838380828437600081840152601f19601f82011690508083019250505050505050919291929080359060200190929190505050611048565b005b61086c6110b2565b6040518080602001828103825283818151815260200191508051906020019080838360005b838110156108ac578082015181840152602081019050610891565b50505050905090810190601f1680156108d95780820380516001836020036101000a031916815260200191505b509250505060405180910390f35b6109a0600480360360208110156108fd57600080fd5b810190808035906020019064010000000081111561091a57600080fd5b82018360208201111561092c57600080fd5b8035906020019184600183028401116401000000008311171561094e57600080fd5b91908080601f016020809104026020016040519081016040528093929190818152602001838380828437600081840152601f19601f820116905080830192505050505050509192919290505050611154565b005b6109aa61116e565b6040518080602001828103825283818151815260200191508051906020019080838360005b838110156109ea5780820151818401526020810190506109cf565b50505050905090810190601f168015610a175780820380516001836020036101000a031916815260200191505b509250505060405180910390f35b610a5160048036036020811015610a3b57600080fd5b8101908080359060200190929190505050611210565b005b610a5b61121a565b6040518080602001828103825283818151815260200191508051906020019080838360005b83811015610a9b578082015181840152602081019050610a80565b50505050905090810190601f168015610ac85780820380516001836020036101000a031916815260200191505b509250505060405180910390f35b610b8f60048036036020811015610aec57600080fd5b8101908080359060200190640100000000811115610b0957600080fd5b820183602082011115610b1b57600080fd5b80359060200191846001830284011164010000000083111715610b3d57600080fd5b91908080601f016020809104026020016040519081016040528093929190818152602001838380828437600081840152601f19601f820116905080830192505050505050509192919290505050611257565b005b6000600554905090565b606060028054600181600116156101000203166002900480601f016020809104026020016040519081016040528092919081815260200182805460018160011615610100020316600290048015610c335780601f10610c0857610100808354040283529160200191610c33565b820191906000526020600020905b815481529060010190602001808311610c1657829003601f168201915b5050505050905090565b606060038054600181600116156101000203166002900480601f016020809104026020016040519081016040528092919081815260200182805460018160011615610100020316600290048015610cd55780601f10610caa57610100808354040283529160200191610cd5565b820191906000526020600020905b815481529060010190602001808311610cb857829003601f168201915b5050505050905090565b606080606080600080600160036002600554848054600181600116156101000203166002900480601f016020809104026020016040519081016040528092919081815260200182805460018160011615610100020316600290048015610d865780601f10610d5b57610100808354040283529160200191610d86565b820191906000526020600020905b815481529060010190602001808311610d6957829003601f168201915b50505050509450838054600181600116156101000203166002900480601f016020809104026020016040519081016040528092919081815260200182805460018160011615610100020316600290048015610e225780601f10610df757610100808354040283529160200191610e22565b820191906000526020600020905b815481529060010190602001808311610e0557829003601f168201915b50505050509350828054600181600116156101000203166002900480601f016020809104026020016040519081016040528092919081815260200182805460018160011615610100020316600290048015610ebe5780601f10610e9357610100808354040283529160200191610ebe565b820191906000526020600020905b815481529060010190602001808311610ea157829003601f168201915b50505050509250818054600181600116156101000203166002900480601f016020809104026020016040519081016040528092919081815260200182805460018160011615610100020316600290048015610f5a5780601f10610f2f57610100808354040283529160200191610f5a565b820191906000526020600020905b815481529060010190602001808311610f3d57829003601f168201915b50505050509150945094509450945094509091929394565b8060009080519060200190610f88929190611271565b5050565b606060018054600181600116156101000203166002900480601f0160208091040260200160405190810160405280929190818152602001828054600181600116156101000203166002900480156110245780601f10610ff957610100808354040283529160200191611024565b820191906000526020600020905b81548152906001019060200180831161100757829003601f168201915b5050505050905090565b8060039080519060200190611044929190611271565b5050565b846000908051906020019061105e929190611271565b508360019080519060200190611075929190611271565b50826003908051906020019061108c929190611271565b5081600290805190602001906110a3929190611271565b50806005819055505050505050565b606060048054600181600116156101000203166002900480601f01602080910402602001604051908101604052809291908181526020018280546001816001161561010002031660029004801561114a5780601f1061111f5761010080835404028352916020019161114a565b820191906000526020600020905b81548152906001019060200180831161112d57829003601f168201915b5050505050905090565b806001908051906020019061116a929190611271565b5050565b606060008054600181600116156101000203166002900480601f0160208091040260200160405190810160405280929190818152602001828054600181600116156101000203166002900480156112065780601f106111db57610100808354040283529160200191611206565b820191906000526020600020905b8154815290600101906020018083116111e957829003601f168201915b5050505050905090565b8060058190555050565b60606040518060400160405280601281526020017f4d79206e616d65206973204d61686d6f75640000000000000000000000000000815250905090565b806002908051906020019061126d929190611271565b5050565b828054600181600116156101000203166002900490600052602060002090601f016020900481019282601f106112b257805160ff19168380011785556112e0565b828001600101855582156112e0579182015b828111156112df5782518255916020019190600101906112c4565b5b5090506112ed91906112f1565b5090565b61131391905b8082111561130f5760008160009055506001016112f7565b5090565b9056fea265627a7a723158202aacc141b3bee6c33f944d83ff238e9ee3af1e93d270d86f808bee1935b85ffb64736f6c63430005100032",
  "source": "// SPDX-License-Identifier: MIT\r\npragma solidity >=0.4.21 <0.7.0;\r\n\r\nimport './Person.sol';\r\n\r\ncontract Property{\r\n\r\n        Person owner;\r\n        uint256 propertyNumber;\r\n        bool status=false;\r\n\r\n        constructor(uint256 propertyNum) public {\r\n              owner = new Person(\"sads\" , \"fdg\" , \"sdfg\" , \"hfg\" , 23);\r\n            //  changePerson(o);\r\n            propertyNumber = propertyNum;\r\n            status = true;\r\n        }\r\n\r\n        function changeOwner(Person newOwner) public{\r\n                owner.setFirstName(newOwner.getFirstName());\r\n                owner.setLastName(newOwner.getLastName());\r\n                owner.setFatherName(newOwner.getFatherName());\r\n                owner.setMotherName(newOwner.getMotherName());\r\n                owner.setNationalNumber(newOwner.getNationalNumber());\r\n        }\r\n\r\n        function getStatus() public view returns (bool){\r\n            return status;\r\n        }\r\n\r\n        function getOwnerFullName() public view returns(string memory){\r\n            return owner.getFullName();\r\n        }\r\n\r\n        function getOwnerID() public view returns (uint256){\r\n            return owner.getNationalNumber();\r\n        }\r\n\r\n        function getPropertyAddress() public view returns(address){\r\n            return address(this);\r\n        }\r\n\r\n        function getPropertyNumber() public view returns(uint256){\r\n            return propertyNumber;\r\n        }\r\n\r\n}",
  "sourcePath": "C:\\Users\\m-y-6\\Desktop\\solidity\\myproject\\contracts\\Property.sol",
  "compiler": {
    "name": "solc",
    "version": "0.5.16+commit.9c3226ce.Emscripten.clang"
  },
  "schemaVersion": "3.2.0",
  "updatedAt": "2020-07-06T15:12:13.692Z",
  "networkType": "ethereum",
  "devdoc": {
    "methods": {}
  },
  "userdoc": {
    "methods": {}
  }
}