{
  "contractName": "Owner",
  "abi": [
    {
      "inputs": [
        {
          "internalType": "string",
          "name": "fn",
          "type": "string"
        },
        {
          "internalType": "string",
          "name": "ln",
          "type": "string"
        },
        {
          "internalType": "string",
          "name": "mn",
          "type": "string"
        },
        {
          "internalType": "string",
          "name": "father_name",
          "type": "string"
        },
        {
          "internalType": "uint256",
          "name": "ID",
          "type": "uint256"
        }
      ],
      "payable": false,
      "stateMutability": "nonpayable",
      "type": "constructor"
    },
    {
      "constant": false,
      "inputs": [
        {
          "internalType": "string",
          "name": "FN",
          "type": "string"
        }
      ],
      "name": "setFirstName",
      "outputs": [],
      "payable": false,
      "stateMutability": "nonpayable",
      "type": "function"
    },
    {
      "constant": true,
      "inputs": [],
      "name": "getFirstName",
      "outputs": [
        {
          "internalType": "string",
          "name": "",
          "type": "string"
        }
      ],
      "payable": false,
      "stateMutability": "view",
      "type": "function"
    },
    {
      "constant": true,
      "inputs": [],
      "name": "getFullName",
      "outputs": [
        {
          "internalType": "string",
          "name": "",
          "type": "string"
        }
      ],
      "payable": false,
      "stateMutability": "view",
      "type": "function"
    },
    {
      "constant": false,
      "inputs": [
        {
          "internalType": "string",
          "name": "LN",
          "type": "string"
        }
      ],
      "name": "setLastName",
      "outputs": [],
      "payable": false,
      "stateMutability": "nonpayable",
      "type": "function"
    },
    {
      "constant": true,
      "inputs": [],
      "name": "getLastName",
      "outputs": [
        {
          "internalType": "string",
          "name": "",
          "type": "string"
        }
      ],
      "payable": false,
      "stateMutability": "view",
      "type": "function"
    },
    {
      "constant": false,
      "inputs": [
        {
          "internalType": "string",
          "name": "FatherN",
          "type": "string"
        }
      ],
      "name": "setFatherName",
      "outputs": [],
      "payable": false,
      "stateMutability": "nonpayable",
      "type": "function"
    },
    {
      "constant": true,
      "inputs": [],
      "name": "getFatherName",
      "outputs": [
        {
          "internalType": "string",
          "name": "",
          "type": "string"
        }
      ],
      "payable": false,
      "stateMutability": "view",
      "type": "function"
    },
    {
      "constant": false,
      "inputs": [
        {
          "internalType": "string",
          "name": "MN",
          "type": "string"
        }
      ],
      "name": "setMotherName",
      "outputs": [],
      "payable": false,
      "stateMutability": "nonpayable",
      "type": "function"
    },
    {
      "constant": true,
      "inputs": [],
      "name": "getMotherName",
      "outputs": [
        {
          "internalType": "string",
          "name": "",
          "type": "string"
        }
      ],
      "payable": false,
      "stateMutability": "view",
      "type": "function"
    },
    {
      "constant": false,
      "inputs": [
        {
          "internalType": "uint256",
          "name": "NatNum",
          "type": "uint256"
        }
      ],
      "name": "setNationalNumber",
      "outputs": [],
      "payable": false,
      "stateMutability": "nonpayable",
      "type": "function"
    },
    {
      "constant": true,
      "inputs": [],
      "name": "getNationalNumber",
      "outputs": [
        {
          "internalType": "uint256",
          "name": "",
          "type": "uint256"
        }
      ],
      "payable": false,
      "stateMutability": "view",
      "type": "function"
    }
  ],
  "bytecode": "0x60806040523480156200001157600080fd5b506040516200105638038062001056833981810160405260a08110156200003757600080fd5b81019080805160405193929190846401000000008211156200005857600080fd5b838201915060208201858111156200006f57600080fd5b82518660018202830111640100000000821117156200008d57600080fd5b8083526020830192505050908051906020019080838360005b83811015620000c3578082015181840152602081019050620000a6565b50505050905090810190601f168015620000f15780820380516001836020036101000a031916815260200191505b50604052602001805160405193929190846401000000008211156200011557600080fd5b838201915060208201858111156200012c57600080fd5b82518660018202830111640100000000821117156200014a57600080fd5b8083526020830192505050908051906020019080838360005b838110156200018057808201518184015260208101905062000163565b50505050905090810190601f168015620001ae5780820380516001836020036101000a031916815260200191505b5060405260200180516040519392919084640100000000821115620001d257600080fd5b83820191506020820185811115620001e957600080fd5b82518660018202830111640100000000821117156200020757600080fd5b8083526020830192505050908051906020019080838360005b838110156200023d57808201518184015260208101905062000220565b50505050905090810190601f1680156200026b5780820380516001836020036101000a031916815260200191505b50604052602001805160405193929190846401000000008211156200028f57600080fd5b83820191506020820185811115620002a657600080fd5b8251866001820283011164010000000082111715620002c457600080fd5b8083526020830192505050908051906020019080838360005b83811015620002fa578082015181840152602081019050620002dd565b50505050905090810190601f168015620003285780820380516001836020036101000a031916815260200191505b5060405260200180519060200190929190505050846003908051906020019062000354929190620004a2565b5083600190805190602001906200036d929190620004a2565b50826002908051906020019062000386929190620004a2565b5081600390805190602001906200039f929190620004a2565b50806005819055506000600160405160200180838054600181600116156101000203166002900480156200040d5780601f10620003ea5761010080835404028352918201916200040d565b820191906000526020600020905b815481529060010190602001808311620003f8575b5050828054600181600116156101000203166002900480156200046a5780601f10620004475761010080835404028352918201916200046a565b820191906000526020600020905b81548152906001019060200180831162000455575b5050925050506040516020818303038152906040526004908051906020019062000496929190620004a2565b50505050505062000551565b828054600181600116156101000203166002900490600052602060002090601f016020900481019282601f10620004e557805160ff191683800117855562000516565b8280016001018555821562000516579182015b8281111562000515578251825591602001919060010190620004f8565b5b50905062000525919062000529565b5090565b6200054e91905b808211156200054a57600081600090555060010162000530565b5090565b90565b610af580620005616000396000f3fe608060405234801561001057600080fd5b50600436106100a95760003560e01c80636ccd3c8c116100715780636ccd3c8c146103105780638c160186146103cb578063932754f91461044e578063932997f114610509578063b68338851461058c578063f8cf8e03146105ba576100a9565b80631edbe53a146100ae57806338477988146100cc5780634fa4329d1461014f5780636392f76b146101d25780636b1092821461028d575b600080fd5b6100b6610675565b6040518082815260200191505060405180910390f35b6100d461067f565b6040518080602001828103825283818151815260200191508051906020019080838360005b838110156101145780820151818401526020810190506100f9565b50505050905090810190601f1680156101415780820380516001836020036101000a031916815260200191505b509250505060405180910390f35b610157610721565b6040518080602001828103825283818151815260200191508051906020019080838360005b8381101561019757808201518184015260208101905061017c565b50505050905090810190601f1680156101c45780820380516001836020036101000a031916815260200191505b509250505060405180910390f35b61028b600480360360208110156101e857600080fd5b810190808035906020019064010000000081111561020557600080fd5b82018360208201111561021757600080fd5b8035906020019184600183028401116401000000008311171561023957600080fd5b91908080601f016020809104026020016040519081016040528093929190818152602001838380828437600081840152601f19601f8201169050808301925050505050505091929192905050506107c3565b005b6102956107dd565b6040518080602001828103825283818151815260200191508051906020019080838360005b838110156102d55780820151818401526020810190506102ba565b50505050905090810190601f1680156103025780820380516001836020036101000a031916815260200191505b509250505060405180910390f35b6103c96004803603602081101561032657600080fd5b810190808035906020019064010000000081111561034357600080fd5b82018360208201111561035557600080fd5b8035906020019184600183028401116401000000008311171561037757600080fd5b91908080601f016020809104026020016040519081016040528093929190818152602001838380828437600081840152601f19601f82011690508083019250505050505050919291929050505061087f565b005b6103d3610899565b6040518080602001828103825283818151815260200191508051906020019080838360005b838110156104135780820151818401526020810190506103f8565b50505050905090810190601f1680156104405780820380516001836020036101000a031916815260200191505b509250505060405180910390f35b6105076004803603602081101561046457600080fd5b810190808035906020019064010000000081111561048157600080fd5b82018360208201111561049357600080fd5b803590602001918460018302840111640100000000831117156104b557600080fd5b91908080601f016020809104026020016040519081016040528093929190818152602001838380828437600081840152601f19601f82011690508083019250505050505050919291929050505061093b565b005b610511610955565b6040518080602001828103825283818151815260200191508051906020019080838360005b83811015610551578082015181840152602081019050610536565b50505050905090810190601f16801561057e5780820380516001836020036101000a031916815260200191505b509250505060405180910390f35b6105b8600480360360208110156105a257600080fd5b81019080803590602001909291905050506109f7565b005b610673600480360360208110156105d057600080fd5b81019080803590602001906401000000008111156105ed57600080fd5b8201836020820111156105ff57600080fd5b8035906020019184600183028401116401000000008311171561062157600080fd5b91908080601f016020809104026020016040519081016040528093929190818152602001838380828437600081840152601f19601f820116905080830192505050505050509192919290505050610a01565b005b6000600554905090565b606060028054600181600116156101000203166002900480601f0160208091040260200160405190810160405280929190818152602001828054600181600116156101000203166002900480156107175780601f106106ec57610100808354040283529160200191610717565b820191906000526020600020905b8154815290600101906020018083116106fa57829003601f168201915b5050505050905090565b606060038054600181600116156101000203166002900480601f0160208091040260200160405190810160405280929190818152602001828054600181600116156101000203166002900480156107b95780601f1061078e576101008083540402835291602001916107b9565b820191906000526020600020905b81548152906001019060200180831161079c57829003601f168201915b5050505050905090565b80600090805190602001906107d9929190610a1b565b5050565b606060018054600181600116156101000203166002900480601f0160208091040260200160405190810160405280929190818152602001828054600181600116156101000203166002900480156108755780601f1061084a57610100808354040283529160200191610875565b820191906000526020600020905b81548152906001019060200180831161085857829003601f168201915b5050505050905090565b8060039080519060200190610895929190610a1b565b5050565b606060048054600181600116156101000203166002900480601f0160208091040260200160405190810160405280929190818152602001828054600181600116156101000203166002900480156109315780601f1061090657610100808354040283529160200191610931565b820191906000526020600020905b81548152906001019060200180831161091457829003601f168201915b5050505050905090565b8060019080519060200190610951929190610a1b565b5050565b606060008054600181600116156101000203166002900480601f0160208091040260200160405190810160405280929190818152602001828054600181600116156101000203166002900480156109ed5780601f106109c2576101008083540402835291602001916109ed565b820191906000526020600020905b8154815290600101906020018083116109d057829003601f168201915b5050505050905090565b8060058190555050565b8060029080519060200190610a17929190610a1b565b5050565b828054600181600116156101000203166002900490600052602060002090601f016020900481019282601f10610a5c57805160ff1916838001178555610a8a565b82800160010185558215610a8a579182015b82811115610a89578251825591602001919060010190610a6e565b5b509050610a979190610a9b565b5090565b610abd91905b80821115610ab9576000816000905550600101610aa1565b5090565b9056fea265627a7a72315820045eec29e2620ad950e78576bf2d5e380d39d0bf84e2479c547241d63f108abb64736f6c63430005100032",
  "source": "//SPDX-License-Identifier: UNLICENSED\r\npragma solidity >=0.4.21 <0.7.0;\r\n\r\ncontract Owner{\r\n         string firstname;\r\n        string lastname;\r\n        string mothername;\r\n        string fathername;\r\n        string fullName;\r\n        uint256 nationalNumber;\r\n\r\n        constructor(string memory fn, string memory ln, string memory mn, string memory father_name,uint256 ID) public{\r\n            fathername = fn;\r\n            lastname = ln;\r\n            mothername = mn;\r\n            fathername = father_name;\r\n            nationalNumber = ID;\r\n            fullName = string (abi.encodePacked(firstname,lastname));\r\n        }\r\n\r\n        function setFirstName(string memory FN) public{\r\n         firstname = FN;\r\n        }\r\n        function getFirstName() public view returns(string memory){\r\n            return firstname;\r\n        }\r\n\r\n        function getFullName() public view returns(string memory){\r\n            return fullName;\r\n        }\r\n\r\n         function setLastName(string memory LN) public{\r\n         lastname = LN;\r\n        }\r\n        function getLastName() public view returns(string memory){\r\n            return lastname;\r\n        }\r\n\r\n         function setFatherName(string memory FatherN) public{\r\n         fathername = FatherN;\r\n        }\r\n        function getFatherName() public view returns(string memory){\r\n            return fathername;\r\n        }\r\n\r\n         function setMotherName(string memory MN) public{\r\n         mothername = MN;\r\n        }\r\n        function getMotherName() public view returns(string memory){\r\n            return mothername;\r\n        }\r\n\r\n         function setNationalNumber(uint256 NatNum) public{\r\n         nationalNumber = NatNum;\r\n        }\r\n        function getNationalNumber() public view returns(uint256){\r\n            return nationalNumber;\r\n        }\r\n\r\n}\r\n\r\ncontract Property{\r\n\r\n        Owner owner;\r\n        uint256 propertyNumber;\r\n        bool status=false;\r\n\r\n        constructor(uint256 propertyNum) public {\r\n              owner = new Owner(\"sads\" , \"fdg\" , \"sdfg\" , \"hfg\" , 23);\r\n            //  changeOwner(o);\r\n            propertyNumber = propertyNum;\r\n            status = true;\r\n        }\r\n\r\n        function changeOwner(Owner newOwner) public{\r\n                owner.setFirstName(newOwner.getFirstName());\r\n                owner.setLastName(newOwner.getLastName());\r\n                owner.setFatherName(newOwner.getFatherName());\r\n                owner.setMotherName(newOwner.getMotherName());\r\n                owner.setNationalNumber(newOwner.getNationalNumber());\r\n        }\r\n\r\n        function getStatus() public view returns (bool){\r\n            return status;\r\n        }\r\n\r\n        function getOwnerFullName() public view returns(string memory){\r\n            return owner.getFullName();\r\n        }\r\n\r\n        function getOwnerID() public view returns (uint256){\r\n            return owner.getNationalNumber();\r\n        }\r\n\r\n        function getPropertyAddress() public view returns(address){\r\n            return address(this);\r\n        }\r\n\r\n        function getPropertyNumber() public view returns(uint256){\r\n            return propertyNumber;\r\n        }\r\n\r\n}\r\n\r\n\r\ncontract Main{\r\n\r\n        string firstname;\r\n        string lastname;\r\n        string mothername;\r\n        string fathername;\r\n        uint256 nationalNumber;\r\n        uint256 blockNumber;\r\n        uint256 constant NULL = 0;\r\n        string state = \"none\";\r\n        Owner buyer;\r\n        Owner seller;\r\n\r\n        mapping(uint256=>Property) contracts;\r\n        mapping(uint256=>bool) checker;\r\n\r\n     function setProperty(Property p) private {\r\n         contracts[p.getPropertyNumber()] = p;\r\n         checker[p.getPropertyNumber()] = true;\r\n     }\r\n\r\n     function getState() public view returns(string memory){\r\n         return state;\r\n     }\r\n\r\n\r\n    //  function checkProperty(uint256 blockNumber) public view returns(bool){\r\n    //         if(contracts[blockNumber].getStatus())\r\n    //             return true;\r\n    //             else return false;\r\n    //     }\r\n\r\n        function setBlockNumber(uint256 BN) public {\r\n            blockNumber = BN;\r\n        }\r\n\r\n        function getOwnerNationalNumner(uint256 BN) public view returns(uint256){\r\n            if(checker[BN]==true)\r\n                {\r\n                    return contracts[BN].getOwnerID();\r\n                }\r\n        }\r\n\r\n        function setBuyerInfo(string memory First_Name,string memory Last_Name,string memory Father_Name,string memory Mother_Name,uint256 ID)\r\n         public {\r\n         firstname = First_Name;\r\n         lastname = Last_Name;\r\n         fathername = Father_Name;\r\n         mothername = Mother_Name;\r\n         nationalNumber = ID;\r\n         buyer = new Owner(firstname,lastname,fathername,mothername,nationalNumber);\r\n\r\n        }\r\n\r\n        function setSellerInfo(string memory First_Name,string memory Last_Name,string memory Father_Name,string memory Mother_Name,uint256 ID)\r\n         public {\r\n         firstname = First_Name;\r\n         lastname = Last_Name;\r\n         fathername = Father_Name;\r\n         mothername = Mother_Name;\r\n         nationalNumber = ID;\r\n         seller = new Owner(firstname,lastname,fathername,mothername,nationalNumber);\r\n\r\n        }\r\n\r\n\r\n        function change_Owner() public returns(string memory){\r\n        if(checker[blockNumber]==true){\r\n            state = \"found the Property and changed the owner\";\r\n            contracts[blockNumber].changeOwner(buyer);\r\n        }\r\n        else{\r\n             Property p = new Property(blockNumber);\r\n             p.changeOwner(seller);\r\n             setProperty(p);\r\n              p.changeOwner(buyer);\r\n            //contracts[blockNumber].changeOwner(buyer);\r\n             state = \"Added to the properties map, and then changed the owner\";\r\n        }\r\n\r\n            return state;\r\n        }\r\n\r\n        // function change_Owner() public view returns(string memory){\r\n        //  //checkProperty();\r\n        //  return getState();\r\n        // }\r\n\r\n\r\n        // function getOwnerValues() view public returns(uint){\r\n        //   return o.getNationalNumber();//(abi.encodePacked(o.getFirstName,o.getLastName,o.getFatherName,o.getMotherName));\r\n        // }\r\n}",
  "sourcePath": "C:\\Users\\m-y-6\\desktop\\solidity\\mytruffle\\contracts\\RealEstate.sol",
  "compiler": {
    "name": "solc",
    "version": "0.5.16+commit.9c3226ce.Emscripten.clang"
  },
  "schemaVersion": "3.2.0",
  "updatedAt": "2020-07-01T20:52:18.781Z",
  "networkType": "ethereum",
  "devdoc": {
    "methods": {}
  },
  "userdoc": {
    "methods": {}
  }
}